{
  "contractName": "TicketBooking",
  "abi": [
    {
      "inputs": [
        {
          "internalType": "string",
          "name": "_name",
          "type": "string"
        }
      ],
      "payable": false,
      "stateMutability": "nonpayable",
      "type": "constructor"
    },
    {
      "anonymous": false,
      "inputs": [
        {
          "indexed": false,
          "internalType": "bool",
          "name": "showAvailable",
          "type": "bool"
        },
        {
          "indexed": false,
          "internalType": "string",
          "name": "showName",
          "type": "string"
        },
        {
          "indexed": false,
          "internalType": "uint256",
          "name": "seatsAvailable",
          "type": "uint256"
        },
        {
          "indexed": false,
          "internalType": "uint256",
          "name": "amount",
          "type": "uint256"
        },
        {
          "indexed": false,
          "internalType": "string",
          "name": "fromTime",
          "type": "string"
        },
        {
          "indexed": false,
          "internalType": "string",
          "name": "toTime",
          "type": "string"
        },
        {
          "indexed": false,
          "internalType": "string",
          "name": "date",
          "type": "string"
        }
      ],
      "name": "ShowEventDetail",
      "type": "event"
    },
    {
      "constant": true,
      "inputs": [],
      "name": "admin",
      "outputs": [
        {
          "internalType": "address",
          "name": "",
          "type": "address"
        }
      ],
      "payable": false,
      "stateMutability": "view",
      "type": "function"
    },
    {
      "constant": true,
      "inputs": [],
      "name": "name",
      "outputs": [
        {
          "internalType": "string",
          "name": "",
          "type": "string"
        }
      ],
      "payable": false,
      "stateMutability": "view",
      "type": "function"
    },
    {
      "constant": true,
      "inputs": [
        {
          "internalType": "uint256",
          "name": "",
          "type": "uint256"
        }
      ],
      "name": "showDetail",
      "outputs": [
        {
          "internalType": "bool",
          "name": "showAvailable",
          "type": "bool"
        },
        {
          "internalType": "string",
          "name": "showName",
          "type": "string"
        },
        {
          "internalType": "uint256",
          "name": "seatsAvailable",
          "type": "uint256"
        },
        {
          "internalType": "uint256",
          "name": "amount",
          "type": "uint256"
        },
        {
          "internalType": "string",
          "name": "fromTime",
          "type": "string"
        },
        {
          "internalType": "string",
          "name": "toTime",
          "type": "string"
        },
        {
          "internalType": "string",
          "name": "date",
          "type": "string"
        },
        {
          "internalType": "string",
          "name": "image",
          "type": "string"
        }
      ],
      "payable": false,
      "stateMutability": "view",
      "type": "function"
    },
    {
      "constant": false,
      "inputs": [
        {
          "internalType": "bool",
          "name": "_showAvailable",
          "type": "bool"
        },
        {
          "internalType": "string",
          "name": "_showName",
          "type": "string"
        },
        {
          "internalType": "uint256",
          "name": "_seatsAvailable",
          "type": "uint256"
        },
        {
          "internalType": "uint256",
          "name": "_amount",
          "type": "uint256"
        },
        {
          "internalType": "string",
          "name": "_fromTime",
          "type": "string"
        },
        {
          "internalType": "string",
          "name": "_toTime",
          "type": "string"
        },
        {
          "internalType": "string",
          "name": "_date",
          "type": "string"
        },
        {
          "internalType": "string",
          "name": "_image",
          "type": "string"
        }
      ],
      "name": "addShow",
      "outputs": [],
      "payable": false,
      "stateMutability": "nonpayable",
      "type": "function"
    },
    {
      "constant": false,
      "inputs": [
        {
          "internalType": "uint256",
          "name": "_showIndex",
          "type": "uint256"
        },
        {
          "internalType": "string",
          "name": "_showName",
          "type": "string"
        },
        {
          "internalType": "uint256",
          "name": "_seatsAvailable",
          "type": "uint256"
        },
        {
          "internalType": "uint256",
          "name": "_amount",
          "type": "uint256"
        },
        {
          "internalType": "string",
          "name": "_fromTime",
          "type": "string"
        },
        {
          "internalType": "string",
          "name": "_toTime",
          "type": "string"
        },
        {
          "internalType": "string",
          "name": "_date",
          "type": "string"
        },
        {
          "internalType": "string",
          "name": "_image",
          "type": "string"
        }
      ],
      "name": "updateShow",
      "outputs": [],
      "payable": false,
      "stateMutability": "nonpayable",
      "type": "function"
    },
    {
      "constant": false,
      "inputs": [
        {
          "internalType": "uint256",
          "name": "_showIndex",
          "type": "uint256"
        },
        {
          "internalType": "uint256",
          "name": "_seatNumber",
          "type": "uint256"
        }
      ],
      "name": "bookSeat",
      "outputs": [],
      "payable": true,
      "stateMutability": "payable",
      "type": "function"
    },
    {
      "constant": true,
      "inputs": [],
      "name": "getShowCount",
      "outputs": [
        {
          "internalType": "uint256",
          "name": "length",
          "type": "uint256"
        }
      ],
      "payable": false,
      "stateMutability": "view",
      "type": "function"
    },
    {
      "constant": false,
      "inputs": [
        {
          "internalType": "uint256",
          "name": "_showIndex",
          "type": "uint256"
        }
      ],
      "name": "makeShowNotAvailable",
      "outputs": [],
      "payable": false,
      "stateMutability": "nonpayable",
      "type": "function"
    },
    {
      "constant": false,
      "inputs": [
        {
          "internalType": "uint256",
          "name": "_showIndex",
          "type": "uint256"
        }
      ],
      "name": "makeShowAvailable",
      "outputs": [],
      "payable": false,
      "stateMutability": "nonpayable",
      "type": "function"
    },
    {
      "constant": true,
      "inputs": [
        {
          "internalType": "uint256",
          "name": "_showIndex",
          "type": "uint256"
        },
        {
          "internalType": "uint256",
          "name": "_seatNumber",
          "type": "uint256"
        }
      ],
      "name": "getBookedSeatMember",
      "outputs": [
        {
          "internalType": "address",
          "name": "",
          "type": "address"
        }
      ],
      "payable": false,
      "stateMutability": "view",
      "type": "function"
    },
    {
      "constant": true,
      "inputs": [
        {
          "internalType": "uint256",
          "name": "_showIndex",
          "type": "uint256"
        }
      ],
      "name": "getBookedSeats",
      "outputs": [
        {
          "internalType": "uint256[]",
          "name": "",
          "type": "uint256[]"
        }
      ],
      "payable": false,
      "stateMutability": "view",
      "type": "function"
    }
  ],
  "bytecode": "0x60806040523480156200001157600080fd5b506040516200262838038062002628833981810160405260208110156200003757600080fd5b81019080805160405193929190846401000000008211156200005857600080fd5b838201915060208201858111156200006f57600080fd5b82518660018202830111640100000000821117156200008d57600080fd5b8083526020830192505050908051906020019080838360005b83811015620000c3578082015181840152602081019050620000a6565b50505050905090810190601f168015620000f15780820380516001836020036101000a031916815260200191505b5060405250505080600090805190602001906200011092919062000159565b5033600160006101000a81548173ffffffffffffffffffffffffffffffffffffffff021916908373ffffffffffffffffffffffffffffffffffffffff1602179055505062000208565b828054600181600116156101000203166002900490600052602060002090601f016020900481019282601f106200019c57805160ff1916838001178555620001cd565b82800160010185558215620001cd579182015b82811115620001cc578251825591602001919060010190620001af565b5b509050620001dc9190620001e0565b5090565b6200020591905b8082111562000201576000816000905550600101620001e7565b5090565b90565b61241080620002186000396000f3fe60806040526004361061009c5760003560e01c80636092d904116100645780636092d904146102a957806361ca854e14610526578063899b9e6914610721578063f1142a671461075c578063f851a44014610955578063fa3aabcd146109ac5761009c565b806306fdde03146100a1578063080f94e9146101315780632617e98d146101695780632f17ad45146101ee5780635851714814610219575b600080fd5b3480156100ad57600080fd5b506100b66109e7565b6040518080602001828103825283818151815260200191508051906020019080838360005b838110156100f65780820151818401526020810190506100db565b50505050905090810190601f1680156101235780820380516001836020036101000a031916815260200191505b509250505060405180910390f35b6101676004803603604081101561014757600080fd5b810190808035906020019092919080359060200190929190505050610a85565b005b34801561017557600080fd5b506101ac6004803603604081101561018c57600080fd5b810190808035906020019092919080359060200190929190505050610ee3565b604051808273ffffffffffffffffffffffffffffffffffffffff1673ffffffffffffffffffffffffffffffffffffffff16815260200191505060405180910390f35b3480156101fa57600080fd5b50610203610fc6565b6040518082815260200191505060405180910390f35b34801561022557600080fd5b506102526004803603602081101561023c57600080fd5b8101908080359060200190929190505050610fd3565b6040518080602001828103825283818151815260200191508051906020019060200280838360005b8381101561029557808201518184015260208101905061027a565b505050509050019250505060405180910390f35b3480156102b557600080fd5b506102e2600480360360208110156102cc57600080fd5b81019080803590602001909291905050506110d2565b6040518089151515158152602001806020018881526020018781526020018060200180602001806020018060200186810386528d818151815260200191508051906020019080838360005b8381101561034857808201518184015260208101905061032d565b50505050905090810190601f1680156103755780820380516001836020036101000a031916815260200191505b5086810385528a818151815260200191508051906020019080838360005b838110156103ae578082015181840152602081019050610393565b50505050905090810190601f1680156103db5780820380516001836020036101000a031916815260200191505b50868103845289818151815260200191508051906020019080838360005b838110156104145780820151818401526020810190506103f9565b50505050905090810190601f1680156104415780820380516001836020036101000a031916815260200191505b50868103835288818151815260200191508051906020019080838360005b8381101561047a57808201518184015260208101905061045f565b50505050905090810190601f1680156104a75780820380516001836020036101000a031916815260200191505b50868103825287818151815260200191508051906020019080838360005b838110156104e05780820151818401526020810190506104c5565b50505050905090810190601f16801561050d5780820380516001836020036101000a031916815260200191505b509d505050505050505050505050505060405180910390f35b34801561053257600080fd5b5061071f600480360361010081101561054a57600080fd5b810190808035151590602001909291908035906020019064010000000081111561057357600080fd5b82018360208201111561058557600080fd5b803590602001918460018302840111640100000000831117156105a757600080fd5b90919293919293908035906020019092919080359060200190929190803590602001906401000000008111156105dc57600080fd5b8201836020820111156105ee57600080fd5b8035906020019184600183028401116401000000008311171561061057600080fd5b90919293919293908035906020019064010000000081111561063157600080fd5b82018360208201111561064357600080fd5b8035906020019184600183028401116401000000008311171561066557600080fd5b90919293919293908035906020019064010000000081111561068657600080fd5b82018360208201111561069857600080fd5b803590602001918460018302840111640100000000831117156106ba57600080fd5b9091929391929390803590602001906401000000008111156106db57600080fd5b8201836020820111156106ed57600080fd5b8035906020019184600183028401116401000000008311171561070f57600080fd5b909192939192939050505061142c565b005b34801561072d57600080fd5b5061075a6004803603602081101561074457600080fd5b81019080803590602001909291905050506118f2565b005b34801561076857600080fd5b50610953600480360361010081101561078057600080fd5b8101908080359060200190929190803590602001906401000000008111156107a757600080fd5b8201836020820111156107b957600080fd5b803590602001918460018302840111640100000000831117156107db57600080fd5b909192939192939080359060200190929190803590602001909291908035906020019064010000000081111561081057600080fd5b82018360208201111561082257600080fd5b8035906020019184600183028401116401000000008311171561084457600080fd5b90919293919293908035906020019064010000000081111561086557600080fd5b82018360208201111561087757600080fd5b8035906020019184600183028401116401000000008311171561089957600080fd5b9091929391929390803590602001906401000000008111156108ba57600080fd5b8201836020820111156108cc57600080fd5b803590602001918460018302840111640100000000831117156108ee57600080fd5b90919293919293908035906020019064010000000081111561090f57600080fd5b82018360208201111561092157600080fd5b8035906020019184600183028401116401000000008311171561094357600080fd5b9091929391929390505050611b16565b005b34801561096157600080fd5b5061096a612055565b604051808273ffffffffffffffffffffffffffffffffffffffff1673ffffffffffffffffffffffffffffffffffffffff16815260200191505060405180910390f35b3480156109b857600080fd5b506109e5600480360360208110156109cf57600080fd5b810190808035906020019092919050505061207b565b005b60008054600181600116156101000203166002900480601f016020809104026020016040519081016040528092919081815260200182805460018160011615610100020316600290048015610a7d5780601f10610a5257610100808354040283529160200191610a7d565b820191906000526020600020905b815481529060010190602001808311610a6057829003601f168201915b505050505081565b8160008110158015610a9b575060028054905081105b610b0d576040517f08c379a000000000000000000000000000000000000000000000000000000000815260040180806020018281038252601f8152602001807f54686520656e74657265642053686f77206973206e6f742056616c696420210081525060200191505060405180910390fd5b828260018110158015610b3e575060028281548110610b2857fe5b90600052602060002090600a0201600201548111155b610bb0576040517f08c379a00000000000000000000000000000000000000000000000000000000081526004018080602001828103825260178152602001807f5468652073656174206973206e6f742076616c6964202100000000000000000081525060200191505060405180910390fd5b600073ffffffffffffffffffffffffffffffffffffffff1660028681548110610bd557fe5b90600052602060002090600a0201600701600086815260200190815260200160002060009054906101000a900473ffffffffffffffffffffffffffffffffffffffff1673ffffffffffffffffffffffffffffffffffffffff1614610ca1576040517f08c379a000000000000000000000000000000000000000000000000000000000815260040180806020018281038252601c8152602001807f546865207365617420697320616c726561647920626f6f6b656420210000000081525060200191505060405180910390fd5b60028581548110610cae57fe5b90600052602060002090600a020160000160009054906101000a900460ff16610d22576040517f08c379a00000000000000000000000000000000000000000000000000000000081526004018080602001828103825260238152602001806123936023913960400191505060405180910390fd5b60028581548110610d2f57fe5b90600052602060002090600a020160030154341015610d99576040517f08c379a00000000000000000000000000000000000000000000000000000000081526004018080602001828103825260268152602001806123b66026913960400191505060405180910390fd5b6000600160009054906101000a900473ffffffffffffffffffffffffffffffffffffffff1690508073ffffffffffffffffffffffffffffffffffffffff166108fc60028881548110610de757fe5b90600052602060002090600a0201600301549081150290604051600060405180830381858888f19350505050158015610e24573d6000803e3d6000fd5b503360028781548110610e3357fe5b90600052602060002090600a0201600701600087815260200190815260200160002060006101000a81548173ffffffffffffffffffffffffffffffffffffffff021916908373ffffffffffffffffffffffffffffffffffffffff16021790555060028681548110610ea057fe5b90600052602060002090600a0201600801859080600181540180825580915050906001820390600052602060002001600090919290919091505550505050505050565b60008260008110158015610efb575060028054905081105b610f6d576040517f08c379a000000000000000000000000000000000000000000000000000000000815260040180806020018281038252601f8152602001807f54686520656e74657265642053686f77206973206e6f742056616c696420210081525060200191505060405180910390fd5b60028481548110610f7a57fe5b90600052602060002090600a0201600701600084815260200190815260200160002060009054906101000a900473ffffffffffffffffffffffffffffffffffffffff1691505092915050565b6000600280549050905090565b60608160008110158015610feb575060028054905081105b61105d576040517f08c379a000000000000000000000000000000000000000000000000000000000815260040180806020018281038252601f8152602001807f54686520656e74657265642053686f77206973206e6f742056616c696420210081525060200191505060405180910390fd5b6002838154811061106a57fe5b90600052602060002090600a02016008018054806020026020016040519081016040528092919081815260200182805480156110c557602002820191906000526020600020905b8154815260200190600101908083116110b1575b5050505050915050919050565b600281815481106110df57fe5b90600052602060002090600a02016000915090508060000160009054906101000a900460ff1690806001018054600181600116156101000203166002900480601f01602080910402602001604051908101604052809291908181526020018280546001816001161561010002031660029004801561119e5780601f106111735761010080835404028352916020019161119e565b820191906000526020600020905b81548152906001019060200180831161118157829003601f168201915b505050505090806002015490806003015490806004018054600181600116156101000203166002900480601f0160208091040260200160405190810160405280929190818152602001828054600181600116156101000203166002900480156112485780601f1061121d57610100808354040283529160200191611248565b820191906000526020600020905b81548152906001019060200180831161122b57829003601f168201915b505050505090806005018054600181600116156101000203166002900480601f0160208091040260200160405190810160405280929190818152602001828054600181600116156101000203166002900480156112e65780601f106112bb576101008083540402835291602001916112e6565b820191906000526020600020905b8154815290600101906020018083116112c957829003601f168201915b505050505090806006018054600181600116156101000203166002900480601f0160208091040260200160405190810160405280929190818152602001828054600181600116156101000203166002900480156113845780601f1061135957610100808354040283529160200191611384565b820191906000526020600020905b81548152906001019060200180831161136757829003601f168201915b505050505090806009018054600181600116156101000203166002900480601f0160208091040260200160405190810160405280929190818152602001828054600181600116156101000203166002900480156114225780601f106113f757610100808354040283529160200191611422565b820191906000526020600020905b81548152906001019060200180831161140557829003601f168201915b5050505050905088565b3373ffffffffffffffffffffffffffffffffffffffff16600160009054906101000a900473ffffffffffffffffffffffffffffffffffffffff1673ffffffffffffffffffffffffffffffffffffffff16146114ef576040517f08c379a000000000000000000000000000000000000000000000000000000000815260040180806020018281038252601c8152602001807f4f6e6c792041646d696e2063616e20616363657373207468697320210000000081525060200191505060405180910390fd5b60026040518061012001604052808f151581526020018e8e8080601f016020809104026020016040519081016040528093929190818152602001838380828437600081840152601f19601f8201169050808301925050505050505081526020018c81526020018b81526020018a8a8080601f016020809104026020016040519081016040528093929190818152602001838380828437600081840152601f19601f82011690508083019250505050505050815260200188888080601f016020809104026020016040519081016040528093929190818152602001838380828437600081840152601f19601f82011690508083019250505050505050815260200186868080601f016020809104026020016040519081016040528093929190818152602001838380828437600081840152601f19601f82011690508083019250505050505050815260200160006040519080825280602002602001820160405280156116695781602001602082028038833980820191505090505b50815260200184848080601f016020809104026020016040519081016040528093929190818152602001838380828437600081840152601f19601f820116905080830192505050505050508152509080600181540180825580915050906001820390600052602060002090600a02016000909192909190915060008201518160000160006101000a81548160ff021916908315150217905550602082015181600101908051906020019061171e9291906122a0565b506040820151816002015560608201518160030155608082015181600401908051906020019061174f9291906122a0565b5060a082015181600501908051906020019061176c9291906122a0565b5060c08201518160060190805190602001906117899291906122a0565b5060e08201518160080190805190602001906117a6929190612320565b506101008201518160090190805190602001906117c49291906122a0565b505050507f39f19ca355b855542d3e1758ec3fdd0367a4898e3ebdb6741c8d07429146d7a28d8d8d8d8d8d8d8d8d8d8d604051808c151515158152602001806020018a815260200189815260200180602001806020018060200185810385528f8f82818152602001925080828437600081840152601f19601f82011690508083019250505085810384528b8b82818152602001925080828437600081840152601f19601f8201169050808301925050508581038352898982818152602001925080828437600081840152601f19601f8201169050808301925050508581038252878782818152602001925080828437600081840152601f19601f8201169050808301925050509f5050505050505050505050505050505060405180910390a150505050505050505050505050565b3373ffffffffffffffffffffffffffffffffffffffff16600160009054906101000a900473ffffffffffffffffffffffffffffffffffffffff1673ffffffffffffffffffffffffffffffffffffffff16146119b5576040517f08c379a000000000000000000000000000000000000000000000000000000000815260040180806020018281038252601c8152602001807f4f6e6c792041646d696e2063616e20616363657373207468697320210000000081525060200191505060405180910390fd5b80600081101580156119cb575060028054905081105b611a3d576040517f08c379a000000000000000000000000000000000000000000000000000000000815260040180806020018281038252601f8152602001807f54686520656e74657265642053686f77206973206e6f742056616c696420210081525060200191505060405180910390fd5b60028281548110611a4a57fe5b90600052602060002090600a020160000160009054906101000a900460ff16611adb576040517f08c379a000000000000000000000000000000000000000000000000000000000815260040180806020018281038252601f8152602001807f53686f7720697320616c7265616479206e6f7420617661696c61626c6520210081525060200191505060405180910390fd5b600060028381548110611aea57fe5b90600052602060002090600a020160000160006101000a81548160ff0219169083151502179055505050565b3373ffffffffffffffffffffffffffffffffffffffff16600160009054906101000a900473ffffffffffffffffffffffffffffffffffffffff1673ffffffffffffffffffffffffffffffffffffffff1614611bd9576040517f08c379a000000000000000000000000000000000000000000000000000000000815260040180806020018281038252601c8152602001807f4f6e6c792041646d696e2063616e20616363657373207468697320210000000081525060200191505060405180910390fd5b8c60008110158015611bef575060028054905081105b611c61576040517f08c379a000000000000000000000000000000000000000000000000000000000815260040180806020018281038252601f8152602001807f54686520656e74657265642053686f77206973206e6f742056616c696420210081525060200191505060405180910390fd5b6040518061012001604052806000151581526020018e8e8080601f016020809104026020016040519081016040528093929190818152602001838380828437600081840152601f19601f8201169050808301925050505050505081526020018c81526020018b81526020018a8a8080601f016020809104026020016040519081016040528093929190818152602001838380828437600081840152601f19601f82011690508083019250505050505050815260200188888080601f016020809104026020016040519081016040528093929190818152602001838380828437600081840152601f19601f82011690508083019250505050505050815260200186868080601f016020809104026020016040519081016040528093929190818152602001838380828437600081840152601f19601f8201169050808301925050505050505081526020016000604051908082528060200260200182016040528015611dda5781602001602082028038833980820191505090505b50815260200184848080601f016020809104026020016040519081016040528093929190818152602001838380828437600081840152601f19601f8201169050808301925050505050505081525060028f81548110611e3557fe5b90600052602060002090600a020160008201518160000160006101000a81548160ff0219169083151502179055506020820151816001019080519060200190611e7f9291906122a0565b5060408201518160020155606082015181600301556080820151816004019080519060200190611eb09291906122a0565b5060a0820151816005019080519060200190611ecd9291906122a0565b5060c0820151816006019080519060200190611eea9291906122a0565b5060e0820151816008019080519060200190611f07929190612320565b50610100820151816009019080519060200190611f259291906122a0565b509050507f39f19ca355b855542d3e1758ec3fdd0367a4898e3ebdb6741c8d07429146d7a260008e8e8e8e8e8e8e8e8e8e604051808c151515158152602001806020018a815260200189815260200180602001806020018060200185810385528f8f82818152602001925080828437600081840152601f19601f82011690508083019250505085810384528b8b82818152602001925080828437600081840152601f19601f8201169050808301925050508581038352898982818152602001925080828437600081840152601f19601f8201169050808301925050508581038252878782818152602001925080828437600081840152601f19601f8201169050808301925050509f5050505050505050505050505050505060405180910390a15050505050505050505050505050565b600160009054906101000a900473ffffffffffffffffffffffffffffffffffffffff1681565b3373ffffffffffffffffffffffffffffffffffffffff16600160009054906101000a900473ffffffffffffffffffffffffffffffffffffffff1673ffffffffffffffffffffffffffffffffffffffff161461213e576040517f08c379a000000000000000000000000000000000000000000000000000000000815260040180806020018281038252601c8152602001807f4f6e6c792041646d696e2063616e20616363657373207468697320210000000081525060200191505060405180910390fd5b8060008110158015612154575060028054905081105b6121c6576040517f08c379a000000000000000000000000000000000000000000000000000000000815260040180806020018281038252601f8152602001807f54686520656e74657265642053686f77206973206e6f742056616c696420210081525060200191505060405180910390fd5b600282815481106121d357fe5b90600052602060002090600a020160000160009054906101000a900460ff1615612265576040517f08c379a000000000000000000000000000000000000000000000000000000000815260040180806020018281038252601b8152602001807f53686f7720697320616c726561647920617661696c61626c652021000000000081525060200191505060405180910390fd5b60016002838154811061227457fe5b90600052602060002090600a020160000160006101000a81548160ff0219169083151502179055505050565b828054600181600116156101000203166002900490600052602060002090601f016020900481019282601f106122e157805160ff191683800117855561230f565b8280016001018555821561230f579182015b8281111561230e5782518255916020019190600101906122f3565b5b50905061231c919061236d565b5090565b82805482825590600052602060002090810192821561235c579160200282015b8281111561235b578251825591602001919060010190612340565b5b509050612369919061236d565b5090565b61238f91905b8082111561238b576000816000905550600101612373565b5090565b9056fe53686f77206973206e6f7420617661696c61626c6520666f7220626f6f6b696e672021496e73756666696369656e7420616d6f756e7420746f20626f6f6b2074686520736561742021a265627a7a7231582037319628331d57607db1e3467732a906074c61c23b0985225e22f14ac4f3dab964736f6c63430005100032",
  "source": "pragma solidity >= 0.5.0 < 0.7.0;\n\ncontract TicketBooking {\n\tstring public name;\n\taddress public admin;\n\n\tstruct ShowDetail {\n\t\tbool showAvailable;\n\t\tstring showName;\n\t\tuint seatsAvailable;\n\t\tuint amount;\n\t\tstring fromTime;\n\t\tstring toTime;\n\t\tstring date;\n\t\tmapping (uint=>address) bookedMember;\n\t\tuint[] bookedSeats;\n\t\tstring image;\n\t}\n\n\tevent ShowEventDetail(\n\t\tbool showAvailable,\n\t\tstring showName,\n\t\tuint seatsAvailable,\n\t\tuint amount,\n\t\tstring fromTime,\n\t\tstring toTime,\n\t\tstring date\n\t\t);\n\t\n\tShowDetail[] public showDetail;\n\t\n\tconstructor(string memory _name) public {\n\t\tname = _name;\n\t\tadmin = msg.sender;\n\t}\n\n\tmodifier requireAdmin() { \n\t\trequire (admin == msg.sender , \"Only Admin can access this !\"); \n\t\t_;\n\t}\n\n\tmodifier indexIsValid(uint _index){\n\t\trequire(_index >= 0 && _index < showDetail.length, \"The entered Show is not Valid !\" );\n\t\t_;\n\t}\n\n\tmodifier seatIsValid(uint _index,uint _seatNumber) { \n\t\trequire(_seatNumber >=1 && _seatNumber <= showDetail[_index].seatsAvailable,\"The seat is not valid !\");\n\t\t_; \n\t}\n\t\n\t\t\n\tfunction addShow (\n\t\tbool _showAvailable,string calldata _showName,uint _seatsAvailable,uint _amount,string calldata _fromTime,string calldata _toTime,string calldata _date,string calldata _image\n\t\t) requireAdmin() external {\n\t\t\n\t\tshowDetail.push(ShowDetail({\n\t\t\tshowAvailable : _showAvailable,\n\t\t\tshowName : _showName,\n\t\t\tseatsAvailable : _seatsAvailable,\n\t\t\tamount : _amount,\n\t\t\tfromTime : _fromTime,\n\t\t\ttoTime : _toTime,\n\t\t\tdate : _date,\n\t\t\tbookedSeats : new uint[](0),\n\t\t\timage : _image\n\t\t\t}));\n\n\t\temit ShowEventDetail(_showAvailable,_showName,_seatsAvailable,_amount,_fromTime,_toTime,_date);\n\t}\n\t\n\tfunction updateShow (\n\t\tuint _showIndex,string calldata _showName,uint _seatsAvailable,uint _amount,string calldata _fromTime,string calldata _toTime,string calldata _date,string calldata _image\n\t\t) requireAdmin() indexIsValid(_showIndex) external {\t\t\n\t\tshowDetail[_showIndex] = ShowDetail({\n\t\t\tshowAvailable : false,\n\t\t\tshowName : _showName,\n\t\t\tseatsAvailable : _seatsAvailable,\n\t\t\tamount : _amount,\n\t\t\tfromTime : _fromTime,\n\t\t\ttoTime : _toTime,\n\t\t\tdate : _date,\n\t\t\tbookedSeats : new uint[](0),\n\t\t\timage : _image\n\t\t});\n\n\t\temit ShowEventDetail(false,_showName,_seatsAvailable,_amount,_fromTime,_toTime,_date);\n\t}\n\n\tfunction bookSeat (uint _showIndex,uint _seatNumber) indexIsValid(_showIndex) seatIsValid(_showIndex,_seatNumber) external payable{\n\t\trequire(showDetail[_showIndex].bookedMember[_seatNumber] == address(0),\"The seat is already booked !\");\n\t\trequire(showDetail[_showIndex].showAvailable,\"Show is not available for booking !\");\n\t\trequire(msg.value >= showDetail[_showIndex].amount,\"Insufficient amount to book the seat !\");\n\n\t\taddress payable payAdmin = address(uint160(address(admin)));\n\t\tpayAdmin.transfer(showDetail[_showIndex].amount);\n\t\tshowDetail[_showIndex].bookedMember[_seatNumber] = msg.sender;\n\t\tshowDetail[_showIndex].bookedSeats.push(_seatNumber);\n\t}\n\t\n\tfunction getShowCount () external view returns(uint length) {\n\t\treturn showDetail.length;\n\t}\n\t\n\tfunction makeShowNotAvailable(uint _showIndex) requireAdmin() indexIsValid(_showIndex) external{\n\t\trequire(showDetail[_showIndex].showAvailable,\"Show is already not available !\");\n\t\tshowDetail[_showIndex].showAvailable = false;\n\t}\n\n\tfunction makeShowAvailable(uint _showIndex) requireAdmin() indexIsValid(_showIndex) external{\n\t\trequire(!showDetail[_showIndex].showAvailable,\"Show is already available !\");\n\t\tshowDetail[_showIndex].showAvailable = true;\n\t}\n\t\n\tfunction getBookedSeatMember(uint _showIndex,uint _seatNumber) indexIsValid(_showIndex) view external returns(address){\n\t\treturn showDetail[_showIndex].bookedMember[_seatNumber];\n\t}\n\n\tfunction getBookedSeats(uint _showIndex) indexIsValid(_showIndex) view external returns(uint[] memory){\n\t\treturn showDetail[_showIndex].bookedSeats;\n\t}\n}\n",
  "sourcePath": "/home/pratheep/main_dir/TicketBooking/contracts/TicketBooking.sol",
  "compiler": {
    "name": "solc",
    "version": "0.5.16+commit.9c3226ce.Emscripten.clang"
  },
  "schemaVersion": "3.1.0",
  "updatedAt": "2020-05-30T14:19:06.787Z",
  "networkType": "ethereum",
  "devdoc": {
    "methods": {}
  },
  "userdoc": {
    "methods": {}
  }
}